:020000040800F2
:100000000000032021060008792200087B22000856
:100010007D2200087F2200088122000800000000E5
:10002000000000000000000000000000316D00082A
:100030008322000800000000C16D00084B66000824
:1000400071060008710600087106000871060008B4
:1000500071060008710600087106000871060008A4
:100060007106000871060008710600087106000894
:100070007106000871060008710600087106000884
:100080007106000871060008710600087106000874
:100090007106000871060008710600087106000864
:1000A0007106000871060008710600087106000854
:1000B0007106000871060008710600087106000844
:1000C0007106000871060008710600087106000834
:1000D0007106000871060008710600087106000824
:1000E0007106000871060008710600087106000814
:1000F0007106000871060008710600087106000804
:1001000071060008710600087106000871060008F3
:1001100071060008710600088522000871060008B3
:1001200071060008710600087106000871060008D3
:1001300071060008710600087106000871060008C3
:1001400071060008710600087106000871060008B3
:1001500071060008710600087106000871060008A3
:100160007106000871060008710600087106000893
:100170007106000871060008710600080000000002
:100180007106000871060008710600087106000873
:100190007106000871060008710600087106000863
:0C01A00091220008710600089D22000852
:1001B00010B5054C237833B9044B13B10448AFF3A1
:1001C00000800123237010BD800300200000000088
:1001D0007815020808B5034B1BB103490348AFF378
:1001E000008008BD0000000084030020781502088C
:1001F00001F0FF01102A2BDB10F0070F08D010F8D8
:10020000013B013A8B422DD010F0070F42B3F6D1DB
:10021000F0B441EA012141EA014122F007047FF0F4
:1002200000070023F0E80256083C85EA010586EA4B
:10023000010685FA47F5A3FA87F586FA47F6A5FA87
:1002400087F68EB9EED1F0BC01F0FF0102F0070293
:1002500032B110F8013B013A83EA010313B1F8D13E
:100260000020704701387047002D06BF354603381F
:10027000073815F0010F07D1013015F4807F02BF58
:10028000013015F4C03F0130F0BC0138704700BFA9
:100290007BB972B90029BEBF00204FF0004106E0D3
:1002A00008BF00281CBF6FF000414FF0FF3000F086
:1002B000B5B9ADF1080C6DE904CE002909DB002BBE
:1002C0001ADB00F04DF8DDF804E0DDE9022304B0AC
:1002D0007047404261EB4101002B1BDB00F040F80E
:1002E000DDF804E0DDE9022304B0404261EB4101A6
:1002F000524263EB43037047524263EB430300F007
:100300002FF8DDF804E0DDE9022304B0404261EBA0
:1003100041017047524263EB430300F021F8DDF8DE
:1003200004E0DDE9022304B0524263EB430370476B
:1003300053B94AB9002908BF00281CBF4FF0FF314C
:100340004FF0FF3000F06AB9ADF1080C6DE904CE52
:1003500000F006F8DDF804E0DDE9022304B07047A0
:100360002DE9F047089D0C46002B4ED194468C4554
:100370008646B2FA82F262D94AB1C2F120039140B4
:1003800020FA03F30CFA02FC194300FA02FE4FEACA
:100390001C471FFA8CF6B1FBF7F44FEA1E4307FB2C
:1003A000141143EA014304FB06F199420AD91CEBFC
:1003B000030304F1FF3080F01281994240F20F8173
:1003C000023C6344591A1FFA8EF3B1FBF7F007FBA6
:1003D000101143EA014300FB06F69E420AD91CEBCA
:1003E000030300F1FF3180F0FC809E4240F2F9806F
:1003F000634402389B1B40EA044000211DB1D340F6
:100400000022C5E90032BDE8F0878B4205D90DB165
:10041000C5E9000100210846F5E7B3FA83F1002998
:1004200046D1A34202D39042C0F0F080861A64EB1A
:1004300003030120002DE6D0C5E90063E3E7002AAD
:1004400040F09080A1EB0C044FEA1C481FFA8CF797
:100450000121B4FBF8F64FEA1E4308FB164443EAB9
:10046000044307FB06F0984208D91CEB030306F18E
:10047000FF3402D2984200F2CD8026461C1A1FFAA1
:100480008EF3B4FBF8F008FB104443EA044300FB8E
:1004900007F79F4208D91CEB030300F1FF3402D297
:1004A0009F4200F2B0802046DB1B40EA0640A5E7F1
:1004B000C1F120068B4022FA06F71F4320FA06FC02
:1004C00004FA01F343EA0C03F44000FA01F8380C93
:1004D0004FEA1349B4FBF0FE1FFA87FC00FB1E44F1
:1004E00049EA04440EFB0CF9A14502FA01F20AD9CB
:1004F0003C190EF1FF3A80F08480A14540F28180E2
:10050000AEF1020E3C44A4EB09041FFA83F9B4FBDC
:10051000F0F300FB134449EA044403FB0CFCA4453C
:1005200007D93C1903F1FF3067D2A44565D9023BD6
:100530003C4443EA0E40A0FB0293A4EB0C049C4213
:10054000CE469C4651D34ED055B1B8EB0E0364EB6A
:100550000C0404FA06F6CB401E43CC40C5E9006407
:10056000002150E7C2F1200320FA03F10CFA02FC4B
:1005700024FA03F394400C434FEA1C4800FA02FEAD
:100580001FFA8CF7B3FBF8F008FB1031230C43EA99
:10059000014300FB07F1994208D91CEB030300F16A
:1005A000FF362CD299422AD9023863445B1AA4B28E
:1005B000B3FBF8F108FB113344EA034401FB07F3F2
:1005C000A34208D91CEB040401F1FF3613D2A34265
:1005D00011D902396444E41A41EA004139E704467A
:1005E000F0E6084606E7C845AED2B9EB020E63EB6B
:1005F000070C0138A8E73146EDE7034699E7304696
:10060000D4E7D6467FE7634402384DE706462346E3
:1006100008460FE7023E634430E700BF704700BF63
:10062000DFF834D0002103E00C4B5B584350043119
:100630000B480C4B42189A42F6D30B4A02E00023B7
:1006400042F8043B094B9A42F9D303F011FC20F025
:10065000B7FA01F04BF8704700000320F8050908CD
:1006600000000020640100208003002034350120B8
:10067000FEE7704708B500F09BFDBDE8084000F0BC
:100680001FBD00F097BD704710B5042104461EF051
:100690009DFF204610BD000038B50C4B0C4C188057
:1006A0000C4B822019806368984740F611039842EA
:1006B0000AD1094D23682C60822098472B6882203C
:1006C000DB689847002038BD0120FCE7A603002026
:1006D0004C000020A4030020A80300204FF4A071C8
:1006E000F020FFF7D9BF0000F7B52C4D2B6804466A
:1006F0001B69822098472080002843D02B680DF189
:1007000006025B6901A982209847BDF80620A2F580
:10071000B47292B20A2A37D90B23B2FBF3F2204B00
:100720001B889A4201D9013B9AB2BDF8043040F6C9
:10073000B8318B422AD8C3F571630E339BB20F21B7
:10074000B3FBF1F3174909888B4201D901398BB208
:10075000154E164D30682F68834281B28CBF591AEE
:10076000C91AB8B2BA428CBF101A801A89B280B2C4
:1007700001440529C8BF33603368C8BF2A6063805D
:100780002B68A38003B0F0BD0022CEE7C3F56D63F4
:1007900008339BB20E2BD2D80023D9E7A803002040
:1007A000A4030020A6030020A00300209C03002037
:1007B00037B568460D461446FFF796FFBDF80000B2
:1007C00040B1BDF802302B60BDF80430C3F596731C
:1007D0002360012003B030BD032821D8DFE800F0FA
:1007E000020B12190F4B1A68B2FA82F25209042155
:1007F0000D4803F0D3BD0B4B5A68B2FA82F252098E
:100800000821F5E7074B9A68B2FA82F252091021E3
:10081000EEE7044BDA68B2FA82F252092021E7E7E8
:10082000704700BFAC03002000100240032821D80D
:10083000DFE800F0020B12190F4B1A68003A18BFDC
:10084000012204210D4803F0A9BD0B4B5A68003A60
:1008500018BF01220821F5E7074B9A68003A18BF34
:1008600001221021EEE7044BDA68003A18BF01229A
:100870002021E7E7704700BFAC03002000100240D2
:1008800003280DD8DFE800F00206080A0421054815
:1008900003F089BD0821FAE71021F8E72021F6E7E7
:1008A000704700BF0010024008B5032811D8DFE8E8
:1008B00000F0020A0C0E0421074803F069FD431EF4
:1008C0005842584108BD0821F6E71021F4E72021DD
:1008D000F2E70020F3E700BF0010024070B5084DBA
:1008E00000240126E0B2FFF7DFFF18B12B68012BCF
:1008F00018BF2E600134052C05F10405F2D170BD3E
:10090000AC030020012380F8781080F8793070471C
:1009100000207047034B4164003918BF0121197052
:10092000704700BFF327012000207047836B0BB195
:100930000846184770474FF6FF70704740680368D5
:100940009B691847704770477047000010B5044610
:1009500000F03EFD23680349D3F88C302046BDE803
:1009600010401847000000D008B503680446D3F8CB
:1009700080309847236820469B6F984700F0ECF83A
:10098000236820461B6F9847292001F05FF900F08B
:10099000E3F8236820461B6F9847F8E710B5044634
:1009A00008F082FF23682046D3F8AC30BDE8104041
:1009B000184700F0EFBC00F0F3BC00F027BD00F0DA
:1009C000C5BC00F037BD00F03FBD00F0C9BC08F069
:1009D000D7B910B57C2104461EF0F8FD204610BDA5
:1009E00010B590F8341090F878400C4B8C421A787F
:1009F00009D03AB90A4A0B491488088810800C803B
:100A000001221A7010BD002AFCD0054A054914883D
:100A1000088810800C800022F3E700BFEC2701203B
:100A2000E8270120EA27012070B50D46194635B99F
:100A3000094B0A4A0A4840F2D2211FF00DFDC0E9D5
:100A40000F52084B003A18BF01221A700368BDE824
:100A50007040D3F88C301847E815020820160208B9
:100A60006E160208F227012008B5094B1B888B423D
:100A700003D8084B1B88934205D9074B074A0848FF
:100A80009E211FF0E9FC074B1980074B1A8008BD17
:100A9000E8270120EA270120B316020816170208EA
:100AA0006E160208EE270120F0270120034690F879
:100AB0007A0018B1586803681B681847704700002F
:100AC000012108B50022084605F04BFE0A4B1860CC
:100AD00028B90A4B0A4A28210A481FF0BDFC002207
:100AE0000421012005F0DCFE074B186018B9074B04
:100AF000034A2C21F0E708BDC00300203418020887
:100B00007D180208AC180208BC030020F91802087E
:100B1000024B4FF0FF31186805F06DBEC003002096
:100B2000014B186805F093BEC0030020024B002162
:100B3000186805F060BE00BFC0030020FFF7F0BFDB
:100B400003480449006800231A4605F0E4BE00BFCC
:100B5000BC0300200400002013B5084C00231A46F3
:100B600001A9206805F008FF20684FF0FF3300223C
:100B700001A905F001FF02B010BD00BFBC030020B9
:100B800003685B6C18470120704703689B6A18472D
:100B9000FEE740F2EF307047054B0360054B4FF026
:100BA0008062C3F88820BFF34F8FBFF36F8F704709
:100BB000981A020800E100E010B504464FF45A61AB
:100BC000FFF7EAFF20461EF001FD204610BD0000A1
:100BD00082B0002301930E4B1A6B42F400021A6399
:100BE0001A6B02F400020192019A1A6942F400029F
:100BF0001A611A6922F400021A61064B064A1A6148
:100C0000064A5A61064B4FF080629A6002B0704704
:100C10000038024048190020710E0008910B0008AE
:100C200000E100E008B50A2809D8DFE800F0061066
:100C30000E080808081010101000022008BD054B0F
:100C4000054A064890211FF007FC0020F6E7012026
:100C5000F4E700BF3B19020856190208A11902085F
:100C600038B50C46887FFFF7DDFFA58AE28A164B70
:100C70002169586342EA05425A64628BD963521B68
:100C80001A642568082D0ED19A611A615862207F76
:100C90000E4A42EA0062DA61E2681A620C4A59615D
:100CA000D9601A6038BD0022D8611A61E1680A0A69
:100CB000480902F4784200F4FC600243C1F3C40125
:100CC0000A439A63034AECE700B0024009000100BE
:100CD000012302000123030008B50B280BD8DFE82D
:100CE00000F00612100A0A0A0A080808080802207A
:100CF00008BD0520FCE7054B054A06486F211FF09B
:100D0000ABFB0020F4E70120F2E700BF3B1902082B
:100D1000EC190208A11902082DE9F04191F81D8093
:100D20000C464046FFF7D8FFA77F05463846FFF739
:100D3000D3FF06463846FFF775FFA18A628B444B06
:100D4000521A1A649A61228B521A1A61E28A586303
:100D500042EA01425A6421696268D963DA60206814
:100D6000802828D0227F0FD8202867D0402865D03F
:100D700004281AD0364B45EA026545F40035B845DB
:100D8000DD6161D0334A44E0B0F5807F04D0B0F536
:100D9000007FEFD1304800E0304840EA0262DA617B
:100DA000E2681A625E62596132E045EA026242F428
:100DB0000032DA61F6E7A068021DDA62227F45EAB6
:100DC000026545F40035DD615E625961017841B12B
:100DD000012921D0224B234A23484FF48D711FF063
:100DE0003BFBDA69418822F47F42013922F010028C
:100DF00042EA0122DA610121154BDA6942F0200250
:100E0000DA61DA699206FCD410229A600029B9D01E
:100E1000164A1A60BDE8F081B2F1FF01DA69408834
:100E200022F47F4200F1FF3022F0100242EA002259
:100E300042F0100218BF0121DA61DDE745EA0262E3
:100E4000034B42F40032B4E742F20132E1E700BF63
:100E500000B0024001230100090002000A00020064
:100E6000361A0208501A0208A119020801230200CA
:100E7000024B1B68586803685B691847F427012018
:100E800070B5044625460A4B0C3000266060267279
:100E9000667245F8203B6022294608F05DFE04F5A5
:100EA0005A63EE6024359D42FBD1204670BD00BFE1
:100EB000981A0208034B1A68D207FCD423229A60BE
:100EC000704700BF00B002407047000030B50F4CC3
:100ED0002568ED07FCD423250904A56041F0010134
:100EE0000225FF2B65636164E0630AD008496562EF
:100EF00041EA0363E361074B22626061E0602360C3
:100F000030BDE561039BA363034BF8E700B00240EB
:100F100009000100010002000100030030B50E4C81
:100F20002568ED07FCD423251204A56042F00102D8
:100F30000225FF2B65636264E063E16008D01B0655
:100F400043F00213E361054B65626061236030BDCD
:100F5000034BE3610123F9E700B002400100020006
:100F6000020002FF30B50B4C2568ED07FCD42325A9
:100F700012041B06A56043F40033022542F001026F
:100F800065636264E063E160E361034B6562606135
:100F9000236030BD00B00240010002000120704714
:100FA0004020704700EB81100830704700EB811043
:100FB00008307047012070474FF4E87070474FF4D5
:100FC000E87303FB0100083070474FF4E87303FB3C
:100FD000010008307047012070471020704700EB77
:100FE00001100830704700EB0110083070470846C8
:100FF00001F0CEBD10B5034B0360044607F015FCAD
:10100000204610BD501B020810B50446FFF7F2FF42
:10101000204648211EF0DAFA204610BD10B5034BD9
:101020000360044607F001FC204610BD1C1B0208AB
:1010300010B50446FFF7F2FF20464FF4EC711EF0A6
:10104000C5FA204610BD000010B5034B03600446EE
:1010500007F0EBFB204610BDE81A020810B5044665
:10106000FFF7F2FF204618211EF0B0FA204610BD0F
:1010700010B5084B0360044600F50170FFF7BAFF96
:1010800004F12C00FFF7CAFF04F11400FFF7DCFFA6
:10109000204610BD841B020808B50248FFF7E8FF90
:1010A00008BD00BF9412002010B50446FFF7E0FF12
:1010B000204640F214411EF089FA204610BD00007F
:1010C0002DE9F34101F05EF9054601F05FF90024D6
:1010D000014623462846224600940FF01BFA274B70
:1010E000274A1A60204602F087F9264D264B274AE8
:1010F00027489A600FF076F92B68BFF35B8FDB0708
:1011000035D428461EF064FA88B3224C224B236063
:1011100004F52E7604F1140004F12C0804F501778F
:101120006060C4F80880E760266107F07FFB1B4B16
:101130006361404607F07AFB194BE362384607F0DB
:1011400075FB184BC4F8043204F5137002F0C6FAAC
:10115000224604F51371304602F0BAF9304601F028
:1011600017FD11481FF096F928461EF03DFA0F486A
:1011700002B0BDE8F041FFF7E9BB00BF58280120ED
:10118000400400209012002060040020440400204D
:101190000800002094120020841B0208E81A0208AC
:1011A0001C1B0208501B020899100008C4030020F1
:1011B000704700000148FFF7D7BB00BFC403002001
:1011C00070B5244E244C254D254B23603046FFF747
:1011D00057FE284614F0A4FA22480DF009FB224BD2
:1011E0002248DC6000224FF48071C3E912122049CA
:1011F0001A86C3E91A121F4999671F4983F85820B4
:101200000B60F02101801D485A6601801C4883F85C
:1012100070204FF4A071C3E90422C3E90622C3E998
:101220000822C3E90A22C3E90E22C3E91022C3E956
:101230001422C3E917225A67C3E9016501801148E6
:10124000018011490A70012283F834200F4A1A6084
:1012500070BD00BFEC0400208C1200206004002050
:10126000D815020844040020C4030020E827012008
:101270000100000100000101F4270120EE270120F8
:10128000EA270120F0270120EC270120641702083B
:101290000148FFF781BC00BFEC040020002070472C
:1012A00081807047C18070470181704741817047DC
:1012B0007047704770477047704710B4C488036820
:1012C000121B84885B6D091B12B25DF8044B09B2D6
:1012D00018474FF6FF7383814FF0FF3303621368A3
:1012E000C36110607047002070478B8883800120A5
:1012F0007047704780F82610704790F826007047B6
:1013000010B50022B1F90840B1F90A1002804280FC
:101310008480C18010BD0022028042808280C28011
:1013200070470177704780ED080A704780F82410F5
:10133000704780F82510704701207047983070473B
:101340008C3070478430704770470000034B902208
:1013500083F85A2383F85823704700BF00E100E068
:10136000094A0A49D3680A48C3F30A03013B9BB2FE
:101370000B801169C1F30A01013901801364536BB9
:1013800043F001035363704700680140AA16002030
:10139000A8160020014BD3F8AC007047006801404C
:1013A000024B0122C3F8AC105A627047006801403A
:1013B0007047704710B52C2104461EF007F92046EF
:1013C00010BD10B5BC2104461EF000F9204610BD2A
:1013D00070B5044607F029FD23685D6E0CF0DCF85B
:1013E00001462046A8472368054AD3F8885020467E
:1013F000AC460023BDE87040A2F51631604700BF3F
:1014000000B004D007F0F8BC07F002BD07F0BEBC86
:1014100007F01FBE90F8252012B103685B691847DA
:10142000704790F825201AB190F8242002B1186076
:1014300070470000034B4FF080629A604FF080725B
:101440009A60704700E100E0084B4FF08062C3F8FB
:101450008820BFF34F8FBFF36F8F4FF08072C3F8B8
:101460008820BFF34F8FBFF36F8F704700E100E01C
:1014700070B50023124E8380124B0360336893F8DB
:10148000582005460AB1D86C00B998680368DB6A31
:1014900098473368B0FA80F4D86C640930B10368B7
:1014A000DB6A9847002808BF44F001042CB9064BBA
:1014B000064A07482C211EF0CFFF284670BD00BF0A
:1014C000F4270120941C0208901B0208EE1B02085E
:1014D000271C020870B5244E3568BFF35B8F15F0EA
:1014E00001053FD130461EF073F800283AD01F4C5A
:1014F0001F4B256104F13400C4E90035C4E90255ED
:10150000E584A562A5850DF0D2FB04F1580009F031
:101510001DFF184BA3652046174B40F8843BFFF78F
:10152000A7FF164BC4F884302433C4F88C306423EE
:10153000C4E928350023C4F8AC30C4F8B030C4F88E
:10154000B430C4F8B8300E480E4BC4F89050C4F80C
:101550009C50C4F8A850C4F898301EF09BFF304649
:101560001EF042F8014870BDAC160020B0160020F5
:10157000042B0208B41C02082C1D0208B82A020819
:1015800049130008982A020810B5144C236823B3A5
:10159000134B144A1B6C11888B4213D1124B1988C0
:1015A00003F00EFD226892F86A30013382F86A3047
:1015B000FFF7C6FA206808F077F9BDE81040002070
:1015C000FFF70AB903F0FCFC206803681B6A984720
:1015D000BDE810400020FFF729B910BDF427012015
:1015E00000680140AA160020A816002007B5064B87
:1015F000ADF806001B68054801220DF1060104F054
:101600008FFA03B05DF804FB0C000020F4170020F3
:1016100008B5642005F099F8FBE7000007B50A2833
:10162000019006D1084909484FF0FF33012204F028
:1016300022FF4FF0FF33012201A9044804F01BFFF1
:10164000019803B05DF804FB701D0208AC17002080
:1016500030B595B0102200210AA81FF009FA142213
:10166000002103A81FF004FA00241E4B01941A6CF9
:1016700042F080521A641B6C03F080530193019B6B
:10168000194B02941A6842F440421A601B6803F432
:10169000404302930122029B4FF48033CDE908239B
:1016A00002254FF480030821CDE90E534FF4B473A3
:1016B000CDE9101308A804231393129503F0D8FC66
:1016C00003F09CFC0F23CDE903354FF4A0504FF4F9
:1016D0008053CDE90603052103A8059403F0A4FE79
:1016E00015B030BD00380240007000402DE9804840
:1016F0009BB002F0CBFBFFF7ABFF142200210DA83B
:1017000000241FF0B5F9C64B00941A6BC548C64EAD
:1017100042F010021A631A6B02F010020092009A53
:1017200001941A6B42F004021A631A6B02F004026D
:101730000192019A02941A6B42F020021A631A6B0A
:1017400002F020020292029A03941A6B42F0800285
:101750001A631A6B02F080020392039A04941A6BC4
:1017600042F001021A631A6B02F001020492049A19
:1017700005941A6B42F002021A631A6B02F002021D
:101780000592059A06941A6B42F040021A631A6B8E
:1017900002F040020692069A07941A6B42F0080281
:1017A0001A631B6B03F00803079322463C21079B37
:1017B00002F0F4FD9D48224643F61C1102F0EEFDB6
:1017C0009B482246402102F0E9FD9A4822464FF408
:1017D000405102F0E3FD224697484FF4C0410125F5
:1017E00002F0DCFD4FF003083C238E48CDF840802A
:1017F0000DA9CDE90D350F9402F0E6FC43F6181360
:101800008A480DA9CDE90D354FF04009CDE90F44C7
:1018100002F0DAFC86480DA902274FF0040ACDE950
:101820000D95CDE90F4402F0CFFC80480F940DA92F
:10183000CDE90DA5109702F0C7FC4FF440527D484A
:101840000DA9CDE90D25CDE90F4702F0BDFC0DA98D
:101850004FF4C0427848CDE90D25CDE90F4402F0A0
:10186000B3FC7648764A026002F0A2FB754B764ADA
:101870003462C6E9003230464FF48042C6E904249F
:10188000C6E90244C6E9064402F096FF102130463C
:1018900003F0DAF92146304603F0F5F96B486C495C
:1018A00084624FF48272C0E900124FF4007618226D
:1018B000C0E906620A22674EC262C0E90244C0E97A
:1018C0000444C0E9084404F0CFF8634A0D97C6E920
:1018D00000251022C6E904294FF4C0724FF40063BA
:1018E000C6E906244FF4005907220DA93046C6E97F
:1018F00008344FF0080BC6E9024ACDE90E2ACDE9BB
:101900001028C6F82890CDE9127703F091FF4FF622
:10191000FF7209A93046CDE90AB5089409950C94DF
:1019200003F0A6FF284602F0DDFA4FF6FF7209A980
:101930003046CDE9097BCDE90B5403F099FF4FF612
:10194000FF7209A93046CDE9098BCDE90BA403F05C
:101950008FFF4FF40C720892089B0C934FF6FF72A6
:1019600009A93046CDE909AB0B9503F081FF40F2A0
:101970006A51304603F09AFF342221460DEB0200F3
:101980001FF076F8354E364B3461C6E90034092332
:10199000C6E905351D2340F20D1CC6E9073840F2A3
:1019A0004313C6E909C340F2171E40F247133046FD
:1019B000C6E90BE3C6E90244B48686F8364003F074
:1019C00007FAFF21F022CDE912144FF480680521B7
:1019D0004FF4A073CDE90E24CDE91481CDE9164270
:1019E0000DA922463046CDE910371E4E18930D94AE
:1019F000ADF864408DF8664003F0B5FA1A4B3360D9
:101A00001B68DFF870A098473368184EDB6898476A
:101A1000174B3046C6E90034C6E902742CE000BF1B
:101A20000038024000100240F41800200008024074
:101A300000140240000C02400018024088190020E7
:101A400000300240005C0040A0860100F417002036
:101A50000050014078170020400100A04C180020E1
:101A6000006801406C170020140000204819002075
:101A700000B0024000100140C6E90A47C6E90C4424
:101A800002F0A6FA2946304602F05AFB2A484FF4E3
:101A9000E133C0E900A30C23C0E90534C0E90244E6
:101AA0000461C46104F0B8FCFEF7E4FDFEF7E1FD5B
:101AB00022481EF0FDFE2A464FF40061204802F045
:101AC0006DFC4FF47A7002F00DFA1D4822464FF477
:101AD000006102F063FC2A464FF48051184802F07E
:101AE0005DFC4FF47A7002F0FDF9154822464FF480
:101AF000805102F053FC2A464946114802F04EFC40
:101B00004FF47A7002F0EEF9224649460C4802F092
:101B100045FC04F0A7FD0B4A0B48214604F0CEFD1E
:101B20000A4B0B4A186021460A4804F0C7FD0A4BCD
:101B3000186004F0A9FDFEE7AC170020721D020832
:101B400000080240C41D0208111600087417002086
:101B5000A01D020883060008701700207047704718
:101B60007FB5094B8DF817201B6802930DF1170202
:101B70000123009201930A460146044802F0C4FE84
:101B800007B05DF804FB00BF10000020F41800202F
:101B90007FB500238DF81730084B1B6802930A4667
:101BA00001230DF11701009101930146044802F051
:101BB0003BFF9DF8170007B05DF804FB1000002004
:101BC000F41800201FB5084C24680092CDE90134B8
:101BD0000A4601230146054802F026FF003818BFD7
:101BE000012004B010BD00BF10000020F418002038
:101BF00002F078B910B5064C00222046042102F00C
:101C0000CDFB20460122BDE81040042102F0C6BBF6
:101C10000008024038B50B4D044601220A484FF433
:101C2000005102F0BBFB00220421284602F0B6FB63
:101C30002046FFF7DBFC28460122BDE8384004219E
:101C400002F0ACBB00080240000C024038B50B4D5E
:101C5000044600220A484FF4005102F09FFB002284
:101C60000421284602F09AFB2046FFF7BFFC2846D5
:101C70000122BDE83840042102F090BB0008024078
:101C8000000C0240F7B5144E144F05460C46304682
:101C90000022042102F082FB00224FF4005138465A
:101CA00002F07CFB2846FFF7A1FC0D4B0D481B689A
:101CB000224601A904F0E0F8384601224FF4005111
:101CC000019C02F06BFB30460122042102F066FB0E
:101CD000204603B0F0BD00BF00080240000C0240E7
:101CE0000C000020F417002002F0FCB80268034B3F
:101CF0009A4201D102F0E4B8704700BF00100040E2
:101D00007047000082B00E4B00220092596C41F4E3
:101D100080415964596C01F480410091009901920D
:101D2000196C41F0805119641B6C03F080530193CE
:101D3000019B0F216FF0010002B002F0F9B800BF63
:101D4000003802400268094B9A4282B00BD100234E
:101D50000193074B1A6B42F480521A631B6B03F416
:101D600080530193019B02B0704700BF00300240D6
:101D70000038024007B50F4B02689A4216D1002284
:101D8000A3F5F0430192196B41F4000119631B6B39
:101D900003F40003019305215A20019B02F0C8F8C7
:101DA0005A2003B05DF804EB02F0F4B803B05DF81C
:101DB00004FB00BF00B002402DE9F043044689B0A7
:101DC0001422002103A81EF053FE2268244B9A42DD
:101DD00043D1244C244800250095236B43F0040391
:101DE0002363236B03F004030093009B0195236B93
:101DF00043F001032363236B03F001030193019B71
:101E00004FF012094FF400734FF001080327042626
:101E100003A9CDE90339CDE90587079602F0D4F986
:101E20004FF480731148079603A9CDE90339CDE932
:101E3000058702F0C9F90295236C43F4000323647B
:101E4000236C03F400030293029B236A43F4000310
:101E50002362236A23F40003236209B0BDE8F08300
:101E6000005C0040003802400008024000000240D0
:101E7000F0B599B004461422002107A81EF0F8FD21
:101E800030220DEB020000211EF0F2FD22685E4BB5
:101E90009A4240F0B78008230C93C0231093042388
:101EA00012930CA84FF40033159303F095FB08B17F
:101EB000FFF726FF554B5648002400945A6C42F019
:101EC00080625A645A6C02F080620092009A019417
:101ED0001A6B42F020021A631A6B02F02002019280
:101EE000019A02941A6B42F001021A631A6B02F013
:101EF00001020292029A03941A6B42F002021A63E0
:101F00001A6B02F002020392039A04941A6B42F0D5
:101F100040021A631A6B02F040020492049A05947C
:101F20001A6B42F004021A631A6B02F00402059263
:101F3000059A06941A6B42F008021A631B6B03F0B1
:101F40000803069302250E26069B0B964FF480632A
:101F500007A9CDE90735CDE9094502F035F941F684
:101F600058032C480B9607A9CDE907350927CDE979
:101F7000094502F029F9032327480B9707A9CDE962
:101F80000735CDE9094502F01FF94FF47063224887
:101F90000B9607A9CDE90735CDE9094502F014F9FB
:101FA0004FF40C631D480B9607A9CDE90735CDE921
:101FB000094502F009F9C02319480B9607A9CDE994
:101FC0000735CDE9094502F0FFF8082315480B96BF
:101FD00007A9CDE90735CDE9094502F0F5F84FF439
:101FE000A0530E480B9707A9CDE90735CDE9094560
:101FF00002F0EAF858202246052101F099FF582006
:1020000001F0C8FF19B0F0BD00680140003802407F
:102010000014024000000240000402400018024088
:1020200000080240000C024010B5044688B014229B
:10203000002103A81EF01CFD2268144B9A4223D1F4
:1020400003F56843002101915A6C114842F4801253
:102050005A645A6C02F480120192019A02911A6B2E
:1020600042F020021A631B6B03F020030293029BD1
:102070004FF4607202230321CDE903230523CDE948
:10208000061303A902F0A0F808B010BD00500140EB
:102090000014024010B5044688B01422002103A8A1
:1020A0001EF0E6FC2268144B9A4223D103F59433C8
:1020B000002101915A6C114842F010025A645A6C86
:1020C00002F010020192019A02911A6B42F0010291
:1020D0001A631B6B03F001030293029B4FF4C0626F
:1020E00002230321CDE903230723CDE9061303A926
:1020F00002F06AF808B010BD001001400000024074
:102100002DE9F04186B0002303932B4B1C68002C73
:102110004FD14FF00108C3F80080284B00949A6B10
:10212000274842EA08029A639B6B03EA080300937C
:10213000022703260C25009B01A94FF63F03CDE99A
:102140000137CDE9046502F03FF81E48059501A965
:10215000CDE90187CDE9034602F036F848F23313A2
:102160001948059501A9CDE90137CDE9034602F0EB
:102170002BF84FF683731548059501A9CDE9013772
:10218000CDE9034602F020F84CF2037310480595A0
:1021900001A9CDE90137CDE9034602F015F8602326
:1021A0000C48059501A9CDE90137CDE9034602F0B8
:1021B0000BF806B0BDE8F08190190020003802400D
:1021C00000140240000802400018024000100240C3
:1021D000000C02400004024070B588B00023029356
:1021E000204B1A6C42F010021A641B6C03F01003AF
:1021F0000293054601A903A8029B03F0CFF9069BB1
:102200004BBB03F0ABF9184E184B336040F2E73389
:10221000F360174BB0FBF3F3013B736030460023D0
:102220003361B360B36104F00BF8044680B9304603
:1022300003F0C8FE044658B9362001F0ABFE0F2D5E
:102240000DD822462946362001F072FE094B1D604A
:10225000204608B070BD03F081F94000D3E70124A7
:10226000F6E700BF0038024094190020001000403B
:1022700040420F007C0000207047FEE7FEE7FEE7CB
:10228000FEE77047014803F0DBBE00BF9419002051
:10229000014802F00BBE00BF4C180020014801F0BD
:1022A000C5BE00BF481900200120704708B51EF0C8
:1022B00081FC162303604FF0FF3008BD08B51EF007
:1022C00079FC16230360FEE770B50D4614460E46F2
:1022D000731B9C4201DC204670BDAFF3008006F802
:1022E000010BF5E770B50D4614460E46731B9C4274
:1022F00001DC204670BD16F8010BFFF78FF9F5E7FA
:102300004FF0FF3070474FF400534B600020704790
:1023100001207047002070470A4A116808B503463B
:1023200009B9094911601068694603448B4206D90E
:102330001EF040FC0C2303604FF0FF3008BD13601B
:10234000FCE700BFDC19002038350120704710B5CC
:10235000042104461DF03AF9204610BD012908B5B4
:1023600006D0022908D059B901F084F8006808BDE8
:1023700001F080F84068FAE701F07CF88068F6E741
:102380000020F4E700487047FC1D02080D2070474C
:1023900013B5002451B1036801948DF8034001AADC
:1023A0009C680DF10303A04702B010BD0846FBE78F
:1023B000C0897047008A7047C0887047808870471E
:1023C000807A00F07F007047807AC0097047002053
:1023D000704700009FED010A704700BF0000000039
:1023E0007047704700F598730868496803C37047E1
:1023F000704770474160704770470000064BC0F857
:102400004C310023C0F8503100F5A273C0F84801E8
:10241000C0F84031704700BF6D26000801230372E9
:102420007047704770477047704710B4C268416882
:102430005410034601EB6200D20748BF0A599B685B
:102440005DF8044B48BFD35818470346406830B185
:102450009A681AB9D86800F00100704701207047E7
:1024600010B50C2104461DF0B1F8204610BD10B582
:10247000102104461DF0AAF8204610BD10B54FF4F7
:10248000AE7104461DF0A2F8204610BD10B54021E3
:1024900004461DF09BF8204610BD10B540210446AF
:1024A0001DF094F8204610BD10B50BF075F80368C8
:1024B000BDE81040DB6B1847054B1B7801462BB17C
:1024C000406818B103680C315B6E1847704700BF55
:1024D000F3270120054B1B7801462BB1406818B14A
:1024E00003680C315B6E1847704700BFF32701206B
:1024F000037A70B50546BBB940680368DB69984745
:1025000004463CB96868036805F10C011B6EBDE820
:1025100070401847A1886B8FC91A236820461B6B2F
:1025200009B29847A469ECE770BD037A70B5054617
:10253000BBB940680368DB69984704463CB96868E2
:10254000036805F10C011B6EBDE870401847A188B7
:102550006B8FC91A236820461B6B09B29847A46980
:10256000ECE770BD10B50446D0F8400158B10368DF
:10257000DB68984738B1D4F8400103689B689847F6
:102580000023C4F8403110BD70B5044690F83900FE
:1025900094F838300130C0B2984284F8390005D937
:1025A00001232372002384F8393070BDB4F93A2036
:1025B00000210CF0E5FFC30706D500284FF6FF7396
:1025C000C8BF0123184400B2238AC01AA0876068DC
:1025D0000368DB69984705462DB960680368BDE864
:1025E00070405B691847A988A38F19442B68284657
:1025F0001B6B09B29847AD69EEE770B5044690F8D9
:10260000390094F838300130C0B2984284F839006B
:1026100005D901232372002384F8393070BDB4F941
:102620003A2000210CF0ACFFC30706D500284FF676
:10263000FF73C8BF0123184400B2238AC01AA087C1
:1026400060680368DB69984705462DB960680368D0
:10265000BDE870405B691847A988A38F19442B68AF
:1026600028461B6B09B29847AD69EEE72DE9F14F9B
:10267000D0E9556A0746B06803681B6A9847DB28AB
:1026800005D8444B444AA32144481DF0E5FE706838
:1026900003681B6A98470F2803D8414B3E4AA42180
:1026A000F2E7F06803681B6A98470B2803D83D4B94
:1026B000394AA521E8E70AF06FFFDFF8F09004300F
:1026C0000AF08FFFD9F8000010B10368DB68984763
:1026D000D9F8000010B103681B689847DFF8D08074
:1026E000D8F8000010B103685B699847D7F83C013F
:1026F00010B103685B689847D8F8000010B1036810
:102700001B689847D7F83C0110B103689B6898474D
:10271000F068036800215B6A98474FF0000B224B7A
:10272000C0F804B0044680F808B00360B0680368DD
:1027300059465B6A9847054600F0C4FF7068036815
:1027400059465B6A98472946064600F09BFF331DB1
:10275000C7F83C61C9F80040C8F80050CAF800301A
:102760002B68C6F808A02846DB68EE6398473368F4
:1027700030461B689847214628460CF0FBFE23682C
:1027800020461B69984723685B69204601B0BDE875
:10279000F04F1847001F02088E1F0208662002082B
:1027A000AD20020850210208402402083C280120E4
:1027B000382801202DE9F0411D460368BDF9187045
:1027C0001B6B0446164698472368314620465B6BD0
:1027D00098472368294620469B6B984723683946CB
:1027E0002046DB6BBDE8F041184700002DE9F74FAC
:1027F000D0E9556A0746B06803681B6A9847DB282A
:1028000005D8544B544AA32154481DF025FE706846
:1028100003681B6A98470F2803D8514B4E4AA421DE
:10282000F2E7F06803681B6A98473F2803D84D4BCE
:10283000494AA521E8E70AF0AFFEDFF838910430F5
:102840000AF0CFFED9F8000010B10368DB689847A2
:10285000D9F8000010B103681B689847DFF81881A9
:10286000D8F8000010B103685B699847D7F83C01BD
:1028700010B103685B689847D8F8000010B103688E
:102880001B689847D7F83C0110B103689B689847CC
:10289000F068036800215B6A984705460022324BC6
:1028A0004260027245F80C3B0446284608F0F6FDEB
:1028B000142323872D4B1B780022A287002B35D1B0
:1028C00001232372B068036800215B6A98470546BC
:1028D00000F0F8FE7068036800215B6A984729469B
:1028E000064600F0CFFE331DC7F83C61C9F8004032
:1028F000C8F80050CAF800302B68C6F808A028466F
:10290000DB68EE639847336830461B68984721467A
:1029100028460CF02FFE236820461B699847236841
:102920005B69204603B0BDE8F04F1847104BDFF855
:102930004CB0B3F900300093BBF900301146284683
:10294000FFF738FF284608F024FDBBF80030638706
:10295000B8E700BF001F0208F32102086620020842
:10296000AD2002085021020888240208F327012024
:10297000EA2701203C28012038280120E8270120EF
:102980002DE9F74FD0E9556A0746B06803681B6A1E
:102990009847B0F5E87F05D2544B554AA3215548D6
:1029A0001DF05AFD706803681B6A98470F2803D80A
:1029B000514B4F4AA421F2E7F06803681B6A98471D
:1029C0003F2803D84D4B4A4AA521E8E70AF0E4FD29
:1029D000DFF8389104300AF004FED9F8000010B195
:1029E0000368DB689847D9F8000010B103681B68DA
:1029F0009847DFF81C81D8F8000010B103685B69C4
:102A00009847D7F83C0110B103685B689847D8F83D
:102A1000000010B103681B689847D7F83C0110B15B
:102A200003689B689847F068036800215B6A9847D1
:102A300005460022324B4260027245F80C3B0446C8
:102A4000284608F02BFD142323872E4B1B780022E9
:102A5000A287002B35D101232372B06803680021BF
:102A60005B6A9847054600F0DDFD70680368002149
:102A70005B6A98472946064600F088FD331DC7F873
:102A80003C61C9F80040C8F80050CAF800302B6813
:102A9000C6F808A02846DB68EE63984733683046DE
:102AA0001B689847214628460CF064FD23682046A1
:102AB0001B69984723685B69204603B0BDE8F04F67
:102AC0001847114BDFF84CB0B3F900300093BBF955
:102AD000003011462846FFF76DFE284608F059FCE5
:102AE000BBF800305B426387B7E700BF001F0208F6
:102AF000DE22020866200208AD20020850210208EA
:102B000064240208F3270120EA2701203C28012041
:102B100038280120E8270120044B1B6893F858202F
:102B20000AB1D86C00B99868704700BFF42701203B
:102B300070B504460D4616460AF0F0FD104A1460C2
:102B4000104A2260104A0023C4E95123C4E95333D8
:102B5000C4E94F330D4B1868036801219B68C4E931
:102B600055659847FFF7D8FF14F02DFCFFF7D4FF09
:102B700014F0A4FCFFF7D0FF14F0ACFC204670BDAD
:102B800048280120EC230208D4230208F42701205E
:102B9000064BC0F84C310023C0F8503100F5A27349
:102BA000C0F84801C0F84031704700BF6D260008EA
:102BB000064BC0F84C310023C0F8503100F5A27329
:102BC000C0F84801C0F84031704700BFED27000849
:102BD000064BC0F84C310023C0F8503100F5A27309
:102BE000C0F84801C0F84031704700BF8129000893
:102BF000704770477047704770477047704770471D
:102C000070477047704730B4C26844685510034637
:102C100004EB6200D20748BF62599B6830BC48BFD2
:102C2000D35818470346406830B19A681AB9D86833
:102C300000F0010070470120704710B510210446D4
:102C40001CF0C4FC204610BD10B54FF4E8710446DA
:102C50001CF0BCFC204610BD00F19803994270B5F1
:102C600004460D4603D10AF097FCFFF7A1FF04F5D7
:102C70009A739D4203D123682046DB6A984704F586
:102C800080739D4203D1236820461B6B984704F153
:102C9000CC039D4205D1236820465B6BBDE87040A4
:102CA000184770BD70B5036804461B6B15469847FE
:102CB0002368294620465B6BBDE87040184700003A
:102CC0000022C0E90122C0E90322C0E90522C0E9CF
:102CD00007224FF480728284014A0260704700BF6D
:102CE000AC24020838B5262204460D4600211DF00A
:102CF000BFFE2046FFF7E4FF064B23602B88E384EA
:102D0000FF23204684F82830294608F0F4FC2046AA
:102D100038BD00BF142D020810B52622044600213C
:102D20001DF0A6FE2046FFF7CBFF0023A36284F828
:102D30002C30012384F82430044B23604FF6FF73BA
:102D400084F83230E3852386204610BDA02C02088B
:102D50002DE9F04F044687B026460CF05FFA0027B5
:102D6000764AE76346F8402B26231A463946304612
:102D70001DF07EFE3046FFF7A3FF714A226404F186
:102D80006C0BFF2284F8662005A904F1980A4FF61F
:102D9000FF75A766584604F1CC09ADF81450FFF74B
:102DA000A1FF5046FFF7B8FF04F580784846FFF7CB
:102DB000B3FF4046FFF7B0FF04F59A73184601933E
:102DC000FFF7AAFF04F5B47305A918460293ADF8FE
:102DD0001450FFF787FF04F5CA73184605A903933B
:102DE000ADF81450FFF77EFF564AC4E97024564AE6
:102DF0003946C4E9722730463A46FFF753FF30465A
:102E0000F021FEF751FA30464FF4A071251DFEF770
:102E10004DFA4FF07F42A2663146284605F01AFD72
:102E20003A4639465846FFF73DFF0C2205A9584659
:102E3000ADF8142008F05FFC5946284605F00AFD5D
:102E40005046D8221821FFF72DFF0B2204F5E0761B
:102E5000ADF81020ADF8142004A905AA504608F0DA
:102E60007DFB51462846C4F8C06005F0F3FC2623DC
:102E70001A4648466521FFF715FF0822ADF81020D5
:102E80000922ADF8142004A905AA484608F066FBFB
:102E900049462846C4F8F46005F0DCFC404683222D
:102EA0006521FFF7FFFE0622ADF810200722ADF8DE
:102EB000142004A905AA404608F050FB41462846C4
:102EC000C4F8286105F0C6FC0198E1226521FFF7EE
:102ED000E9FE0422ADF8102005220198ADF8142077
:102EE00004A905AA08F03AFB0199C4F85C612846D8
:102EF00005F0B0FC6D2202982E21FFF7D3FE029858
:102F0000ADF8147005A908F0F6FB0299284605F003
:102F1000A1FC6D2203982F21FFF7C4FE0123039823
:102F2000ADF8143005A908F0E6FB2846039905F032
:102F300091FC204607B0BDE8F08F00BF2C250208A9
:102F4000382C020814250208592C0008406A7047E2
:102F5000806A704770478B88C0690A68DB0A50F83E
:102F600023001044704710B50446BAB1107B68B115
:102F7000537BD27A1B0203F4E0631A43236A03EB08
:102F800082031A888A4202D193F9020010BD05D843
:102F9000013880B204330028F3D1F7E70020F5E7C9
:102FA00010B52C2104461CF011FB204610BD00007A
:102FB00030B58BB00446BDF860500895BDF85C5044
:102FC00007959DF8505006959DF84C5005959DF835
:102FD000485004959DF8445003959DF84050029543
:102FE0009DF83C500195BDF8385000950BF01CFF42
:102FF000064B2360159BE361169B2362199B63625A
:103000001A9BA36220460BB030BD00BF6C2502089E
:1030100070477047704730B4C26844685510034623
:1030200004EB6200D20748BF62599B6830BC48BFBE
:10303000D35818470346406830B19A681AB9D8681F
:1030400000F0010070470120704710B510210446C0
:103050001CF0BCFA204610BD10B5DC2104461CF063
:10306000B5FA204610BD9830884208B505D10AF05F
:1030700093FABDE80840FFF7ABBD08BD2DE9F34763
:103080000446264600250CF0C9F8494BE56346F88E
:10309000403B4FF0260A5246294630461DF0E8FCD8
:1030A0003046FFF70DFE04F16C07424B23644FF0EE
:1030B000FF084FF6FF795246294684F86680A566D8
:1030C0003846ADF804901DF0D3FC3846FFF7F8FD04
:1030D000394BE366BDF80430A4F8923084F894804C
:1030E00001A904F19808384608F005FB5246294624
:1030F00040461DF0BDFC4046FFF7E2FD012384F889
:10310000BC302E4BC4F898302D4BA4F8C690C4E9BF
:1031100033342C4BA4F8C8902A46C4E9353584F8DA
:10312000CA9029463046C4F8C05084F8C450FFF70E
:10313000B9FD3046F021FEF7B7F830464FF4A071E4
:10314000FEF7B4F804F104094FF07F43A36631465B
:10315000484605F07FFB2A4629463846FFF7A2FD80
:10316000022301A93846ADF8043008F0C4FA394604
:10317000484605F06FFB40464B229121FFF792FD38
:103180000323ADF8003001AA0A2369464046ADF892
:10319000043008F0E3F904F1CC034846C4F8C03029
:1031A000414605F057FB204602B0BDE8F08700BF5E
:1031B000EC250208382C0208142D0208A02C020865
:1031C000D4250208673000087047000030B5164D5E
:1031D0002C68BFF35B8F14F001048FB020D1284618
:1031E0001CF0F6F9E0B13F230993104B0893104B04
:1031F000104911480A940122CDE906430423CDE980
:1032000003320A230093CDE90B44CDE90144059430
:10321000FFF7CEFE09481DF03DF928461CF0E4F901
:1032200005480FB030BD00BFE0190020F437020898
:1032300000380208C4370208E4190020C931000828
:103240007047000030B5164D2C68BFF35B8F14F04B
:1032500001048FB020D128461CF0BAF9E0B13F2319
:103260000993104B0893104B104911480A940122FE
:10327000CDE906430423CDE9033214230093CDE9BD
:103280000B44CDE901440594FFF792FE09481DF077
:1032900001F928461CF0A8F905480FB030BD00BF61
:1032A000101A0020F837020804380208D437020840
:1032B000141A0020413200087047000030B5164D46
:1032C0002C68BFF35B8F14F001048FB020D1284627
:1032D0001CF07EF9E0B13F230993104B0893104B8B
:1032E000104911480A940122CDE906430423CDE98F
:1032F000033228230093CDE90B44CDE90144059422
:10330000FFF756FE09481DF0C5F828461CF06CF979
:1033100005480FB030BD00BF401A0020FC3702083E
:1033200008380208E4370208441A0020B9320008BD
:1033300000207047002070470EB403B503AB002196
:1033400053F8042B01930BF073F802B05DF804EB13
:1033500003B070470CB407B504AB53F8042B0193CA
:103360000BF066F803B05DF804EB02B070470000A4
:10337000436C10B5044673B3038F2BB9184B194A2D
:10338000C52119481DF068F8C38E00EB43035B8C20
:103390000BB30CF0ECFD238F012B03D8134B144A15
:1033A000CB21EEE7E28E531C9BB2092B194688BF56
:1033B000A3F10A0104EB410140F63F10498C814220
:1033C00009D10A2B04EB420228BF002304EB43037C
:1033D000508C588451842046BDE810400CF0CABC83
:1033E0001826020821260208CC2602081627020801
:1033F000242702080CF085BC38B518BB124B1348C3
:103400001C681349B4B122682244026062682244F5
:103410000A60A26814440F4B00221A8000F02AF8B8
:10342000054600F025F80C4B1C600C4B1D600C4B46
:10343000188007E00B4B03600B4B0B600B4B1C68B9
:10344000002CE8D138BD00BF7C1A0020741A00207F
:10345000701A0020781A00204C28012054280120DE
:1034600050280120103802080C38020814380208CD
:103470000020704700487047801A002010B5FFF701
:10348000E1FE044C2060FFF719FF6060FFF79EFE2D
:10349000A06010BD801A002010B5002404600C60EC
:1034A00014601C6010BD704710B54FF4AE71044637
:1034B0001CF08CF8204610BD10B50446D0F8580119
:1034C00000F012F92046BDE810400AF0E7B800000D
:1034D00010B50446FFF72CFB014B2360204610BDBE
:1034E0000028020870470438704710B510210446C0
:1034F0001CF06CF8204610BDA0F10400F5E78068D0
:1035000000F0F4B8F8B50721064680680C4F00F0CB
:10351000D3F9051F00F1180455F8041FB06800F036
:10352000E5F8296838461DF05BF94FF4967000F015
:10353000D9FCA542F0D1BDE8F84002481DF0B8B969
:103540004C2802085028020810B5044603481DF014
:10355000AFF9A068BDE8104000F024B96B2802085C
:1035600010B50446806800F003F907280DD1A06863
:1035700000F014F928B1E06803689B6BBDE81040C7
:103580001847E0680368DB6BF8E710BD0022826033
:10359000024A026020324260C160704794280208EB
:1035A000704710B50446C06B036800211B6998473B
:1035B000E06B0368BDE810405B690021184710B557
:1035C0000446C06B036801211B699847E06B0368E0
:1035D000BDE810405B690121184710B50446C06B77
:1035E000036802211B699847E06B0368BDE810403F
:1035F0005B6902211847000010B5034B03600446C5
:10360000FFF7FEFA204610BDC428020810B5044694
:10361000FFF7F2FF20464FF4E8711BF0D7FF20467A
:1036200010BD000010B50446FFF792FB014B23606C
:10363000204610BDC428020810B50446FFF7E1FA81
:10364000002384F88D3184F8B93110BD012380F84E
:103650008D3100F5B4700BF015B8012380F8B93145
:1036600000F5CA700BF00EB8704704387047704709
:1036700010B5102104461BF0A9FF204610BDA0F193
:103680000400F5E700228260024A026018324260BC
:10369000C16070470C2902087047000010B5034B49
:1036A00003600446FFF7B4FC204610BD342902082D
:1036B00010B50446FFF7F2FF2046DC211BF086FF21
:1036C000204610BD10B50446FFF7D8FC014B23601F
:1036D000204610BD34290208FFF79BBC00220B21B5
:1036E00002608166026670477047000010B50C46A4
:1036F00081B901224FF40061144800F04FFEFA2016
:1037000000F0F0FB22464FF40061BDE810400F4886
:1037100000F044BE01290CD10A460C484FF48051F8
:1037200000F03CFEFA2000F0DDFB00224FF4805157
:10373000EBE701224FF40051044800F02FFEFA207D
:1037400000F0D0FB00224FF40051DEE700080240F9
:1037500010B5026B00239A4201DC012010BD50F825
:10376000044F016B8C4201D10133F4E70020F5E7EF
:1037700038B5036E5D1C00EB830305665963036B6C
:103780009D42044605D1FFF7E3FF20B1012384F8F1
:103790006430284638BD84F86400FAE790F8640085
:1037A0007047000038B504460A481DF081F8A56E40
:1037B00025EAE575AD002A460021201D1DF058F9C7
:1037C0002A46002104F134001DF052F9002323633E
:1037D000236638BD6029020830B5254D00F56374B5
:1037E0000246116852F8043F01F0004123F0004303
:1037F0000B43D2F8301681EA530113F0010318BFCE
:103800002B465940944242F8041CEAD1184D021F3D
:1038100000F22C64D2F89033D2F8941303F00043F2
:1038200021F000410B4352F8041F81EA530113F0C9
:10383000010318BF2B464B409442C2F88C33E9D1A8
:10384000D0F8BC3902680A4922F0004203F0004374
:103850001343D0F8302682EA530213F0010318BF55
:103860000B465A400023C0F8BC29C0F8C03930BD0F
:10387000DFB00899D0F8C039B3F51C7F10B5044605
:1038800001D3FFF7A9FFD4F8C03909485A1CC4F87E
:10389000C02954F82320074B82EAD22203EAC2133C
:1038A000534000EAC330584080EA904010BD00BF4A
:1038B0000000C6EF80562C9D2DE9F041ADF6C81DE5
:1038C0000D46044600F008FB0190184801A90122AA
:1038D0000B6883EA937300FB03230132B2F51C7F6C
:1038E00041F8043FF4D1CDF8C429256327464FF0B1
:1038F00000080326A84504DB201D0DF6C81DBDE801
:10390000F08101A8FFF7B6FFA0FB0630022B09D912
:1039100047F8040F08F10108ECE701A8FFF7AAFF38
:10392000A0FB0630002BF8D0F2E700BF6589076CDA
:10393000F02070474FF4A07070472920FEF786B939
:103940002820FEF783B908B5FEF754F9CA20FEF720
:103950007DF9C320FEF75EF90820FEF75BF95020E1
:10396000FEF758F9CF20FEF771F90020FEF752F963
:10397000C120FEF74FF93020FEF74CF9ED20FEF79D
:1039800065F96420FEF746F90320FEF743F912209B
:10399000FEF740F98120FEF73DF9E820FEF756F9E1
:1039A0008520FEF737F90020FEF734F97820FEF77E
:1039B00031F9CB20FEF74AF93920FEF72BF92C20FC
:1039C000FEF728F90020FEF725F93420FEF722F94A
:1039D0000220FEF71FF9F720FEF738F92020FEF746
:1039E00019F9EA20FEF732F90020FEF713F900205A
:1039F000FEF710F9B120FEF729F90020FEF70AF9C9
:103A00001B20FEF707F9B620FEF720F90A20FEF783
:103A100001F9A220FEF7FEF8C020FEF717F91020EA
:103A2000FEF7F8F8C120FEF711F91020FEF7F2F8C2
:103A3000C520FEF70BF94520FEF7ECF81520FEF740
:103A4000E9F8C720FEF702F99020FEF7E3F83620E8
:103A5000FEF7FCF8C820FEF7DDF8F220FEF7F6F8D6
:103A60000020FEF7D7F8B020FEF7F0F8C220FEF7EE
:103A7000D1F8B620FEF7EAF80A20FEF7CBF8A72027
:103A8000FEF7C8F82720FEF7C5F80420FEF7C2F8B5
:103A90002A20FEF7DBF80020FEF7BCF80020FEF736
:103AA000B9F80020FEF7B6F8EF20FEF7B3F82B20A8
:103AB000FEF7CCF80020FEF7ADF80020FEF7AAF8DC
:103AC0000120FEF7A7F83F20FEF7A4F8F620FEF746
:103AD000BDF80120FEF79EF80020FEF79BF80620B7
:103AE000FEF798F82C20FEF7B1F8C820FEF7FCF896
:103AF0002620FEF7ABF80120FEF78CF8E020FEF759
:103B0000A5F80F20FEF786F82920FEF783F8242079
:103B1000FEF780F80C20FEF77DF80E20FEF77AF80D
:103B20000920FEF777F84E20FEF774F87820FEF7AC
:103B300071F83C20FEF76EF80920FEF76BF81320B1
:103B4000FEF768F80520FEF765F81720FEF762F823
:103B50001120FEF75FF80020FEF75CF8E120FEF789
:103B600075F80020FEF756F81620FEF753F81B20D4
:103B7000FEF750F80420FEF74DF81120FEF74AF842
:103B80000720FEF747F83120FEF744F83320FEF710
:103B900041F84220FEF73EF80520FEF73BF80C20E6
:103BA000FEF738F80A20FEF735F82820FEF732F83D
:103BB0002F20FEF72FF80F20FEF72CF81120FEF72C
:103BC00045F8C820FEF790F82920FEF73FF8BDE839
:103BD00008402C20FEF73AB808B5FEF70BF8032191
:103BE000D320FEF74FF880B208BD10B5C4B2022250
:103BF00003212046FDF7B4FF0A20FDF7F9FF204618
:103C000000220321FDF7ACFFBDE810400220FDF7C4
:103C1000EFBF38B50446E4B2FDF7A0FF002120460F
:103C2000FDF7B6FF012105462046FDF7B1FF40EA4A
:103C3000052080B238BD10B5C4B240212046FDF742
:103C4000A7FF030607D54C212046FDF7A1FF00384A
:103C500018BF012010BD01224B212046FDF780FF37
:103C6000204600224B21FDF77BFF0020F2E773B5D1
:103C70000423C4B20E461546D7210DEB030220469D
:103C8000FDF7A0FF019B1BBA1A0DC3F30B23328073
:103C900020462B8001224B21FDF762FF00224B21A1
:103CA0002046FDF75DFF02B070BD000010B50A4A66
:103CB0001378984204460DD0517888420AD00BB14F
:103CC00041B90123D454FDF749FF2046BDE8104017
:103CD000FFF78BBF10BD00BF8C1A002010B5C4B217
:103CE00009212046FDF754FF40F00102D2B22046E0
:103CF0000921BDE81040FDF733BF10B5C4B209215A
:103D00002046FDF745FF092100F0FE022046BDE8F0
:103D10001040FDF725BF38B5C4B20D4620460A2134
:103D2000FDF736FF40EA0502D2B220460A21BDE87F
:103D30003840FDF715BF10B50446FDF710FF2046CB
:103D40001F21FFF7E8FF2046BDE81040FFF7C6BF80
:103D500038B5C4B20D4620460A21FDF719FF20EA06
:103D60000502D2B220460A21BDE83840FDF7F8BE70
:103D700010B50446FFF7C1FF20461F21BDE81040E3
:103D8000FFF7E6BF10B5C0B20C460B21FDF700FFF0
:103D9000204010BD1F21FFF7F5BF0A46C0B20B211E
:103DA000FDF7DEBE1F21FFF7F8BF38B5C4B20D46E0
:103DB00020461721FDF7ECFE20EA0502D2B220468C
:103DC0001721BDE83840FDF7CBBE70B5C4B206463A
:103DD00004212046FDF7DCFE042100F0FB0205462D
:103DE0002046FDF7BDFE3046F021FFF7DEFF05F06F
:103DF000F80220460421FDF7B3FE49222021204687
:103E0000FDF7AEFE0220FDF7F3FE20460122212140
:103E1000FDF7A6FE20469A224121FDF7A1FE20468D
:103E200001224A21FDF79CFE204601224B21FDF78D
:103E300097FE204600224B21FDF792FE20460122EC
:103E40005621FDF78DFE204601225821FDF788FE00
:103E5000204601224021FDF783FE2046FF220B2150
:103E6000FDF77EFEBDE870400220FDF7C1BE0000F8
:103E7000054BD3F8882042F47002C3F888204FF035
:103E800000629A60704700BF00ED00E008B50B4B80
:103E90001A6842F400721A601A6842F480621A606A
:103EA0001A6842F480721A60032000F02FF8002094
:103EB000FEF792F9FDF726FF002008BD003C024006
:103EC000034A044B11681B780B441360704700BF12
:103ED000901A002078000020014B1868704700BF3E
:103EE000901A002038B50446FFF7F6FF631C1CBF8C
:103EF000054B1B78054618BFE418FFF7EDFF431B81
:103F0000A342FAD338BD00BF780000200749CA6831
:103F100022F4E0620302120403F4E063120C134380
:103F200043F0BF6343F40033CB60704700ED00E023
:103F3000164B30B5DC68C4F30224C4F10703251D19
:103F4000042B28BF0423062D4FF0FF358CBF033C04
:103F5000002405FA03F321EA0303A54022EA05023F
:103F6000A340002843EA0203ACBF00F16040084AC6
:103F70004FEA0313B8BF00F00F00DBB2AABF00F591
:103F80006140135480F8003330BD00BF00ED00E005
:103F900014ED00E0002807DB044A4109012300F08A
:103FA0001F00834042F82130704700BF00E100E06D
:103FB00010B5044650B1437903F0FF0213B9027102
:103FC000FDF7C0FE01236371002010BD0120FCE756
:103FD00010B5044630B390F8393003F0FF021BB936
:103FE00080F83820FDF7C6FE22686168022384F855
:103FF0003930136823F440330B431360536BA168CB
:1040000023F007030B435363136CE16823F47F53DE
:1040100023F03F030B43136400200123E06384F883
:10402000393010BD0120FCE770477047036870B558
:104030005E681D68F207044614D5E90512D51A68B2
:1040400022F480721A60C26B42F00102C263012244
:104050009A60042380F83930002380F838304369AF
:1040600003B19847B20616D5AB0414D523681A6875
:1040700022F400521A6020229A60E36B43F002039C
:10408000E363042384F83930002384F8383063690B
:104090000BB120469847300716D5290514D523685B
:1040A0001A6822F400621A6008229A60E36B43F0F7
:1040B0000403E363042384F83930002384F83830A0
:1040C00063690BB12046984772070BD56B0509D57C
:1040D00023681A6822F480621A6004229A602046DB
:1040E000FFF7A2FFB00714D5A90512D523681A68F7
:1040F00022F400721A6002229A60E36BE3630123E8
:1041000084F83930002384F8383023690BB1204615
:104110009847F20613D5EB0411D523681A6822F4E8
:1041200080521A6010229A60E36BE363012384F8E3
:104130003930002384F838302046FFF776FF70BD11
:10414000F0B590F83820012A03464FF002002BD03A
:10415000012283F8382083F8390003EB0112D2E9F9
:104160000740556A174F44EA0040093C012C9CBFA8
:1041700005F07F4210434FEA01161A6888BF40EAF3
:10418000056091B9516A394001435162012C996926
:10419000916103D8596A21F07F4191620122002088
:1041A00083F8392083F83800F0BDD16939400143E4
:1041B000D1619919012C896911619CBF25F07F4556
:1041C0001562EBE7F0FFFC002DE9F74FDFF8BC913B
:1041D0006C4A00230D6801249C4004EA0506AC43A8
:1041E00040F0B7804D68032705F003044FEA430809
:1041F00007FA08FC671E012F6FEA0C0C34D8876899
:1042000007EA0C0ECF6807FA08F747EA0E0787603F
:10421000476827EA060EC5F300179F4047EA0E07D6
:104220004760C76807EA0C0E8F6807FA08F747EA85
:104230000E07022CC76019D14FEAD30A00EB8A0A95
:1042400003F0070BDAF820704FEA8B0B4FF00F0EDC
:104250000EFA0BFE27EA0E0E0F6907FA0BF747EA74
:104260000E07CAF8207001E0032CDAD1076804FABF
:1042700008F407EA0C073C4315F4403F046068D09B
:1042800000240194D9F8444044F48044C9F84440DF
:10429000D9F8444023F0030707F1804704F4804431
:1042A00007F59C37019403F0030C019CD7F808E054
:1042B0004FEA8C0C0F2404FA0CF42EEA040E324C54
:1042C000A0424DD004F58064A0424BD004F5806438
:1042D000A04249D004F58064A04247D004F5806430
:1042E000A04245D004F58064A04243D004F5806428
:1042F000A04241D004F58064A0423FD004F5806420
:10430000A0423DD004F58064A04214BF0A240924D1
:1043100004FA0CF444EA0E04BC609468F74315F404
:10432000801F0CBF3C4034439460D46815F4001FD8
:104330000CBF3C403443D460546815F4003F0CBFBC
:104340003C40344354601468ED0354BF3C40344354
:1043500014600133102B7FF43DAF03B0BDE8F08F44
:104360000024D5E70124D3E70224D1E70324CFE7D3
:104370000424CDE70524CBE70624C9E70724C7E7D3
:104380000824C5E7003C014000000240003802401C
:104390000369194214BF0120002070470AB18161EE
:1043A00070470904FBE7436901EA030221EA0301BC
:1043B00041EA02418161704701684B6913F48063EF
:1043C0004FF0000210D06FF480634B612023026332
:1043D00080F83D3080F83E20036C80F83C2043F0AC
:1043E0000403036401207047184670472DE9F8461E
:1043F00006460F4691461D464FEA114A3368BAF108
:10440000010F0CBF5C699C6927EA0404A4B2B4FAEA
:1044100084F46409A14501D0002025E06A1CEED097
:10442000FFF75AFD089BC01AA84201D8002DE5D11C
:104430003368BAF1010F0CBF5B699B6927EA03037C
:104440009BB2B3FA83F35B099945D7D100232022AD
:10445000336386F83D2086F83E30326C86F83C3077
:1044600042F0200232640120BDE8F8862DE9F041D7
:1044700004460F46164698462568686927EA0000F4
:1044800080B2C0B16B695A0517D52B6843F400732D
:104490002B606FF480636B6120220023236384F818
:1044A0003D2084F83E30236C43F004032364002352
:1044B00084F83C300120BDE8F081731CDDD0FFF7AB
:1044C0000BFDA0EB0800B04201D8002ED4D1236828
:1044D0005A6927EA020292B2002ACDD00023202294
:1044E000236384F83D2084F83E30236C1343DDE7DA
:1044F00070B504460D46164623685B691B0601D558
:1045000000201EE02046FFF757FFC8B96A1CF3D011
:10451000FFF7E2FC801BA84201D8002DECD12368F4
:104520005B6913F08003E7D12022236384F83D20E8
:1045300084F83E30226C84F83C3042F02002226441
:10454000012070BD2DE9F0431546026885B0DDE914
:104550000C789946136843F4807313600E463B460B
:10456000CDF8008000224FF001110446FFF73EFF16
:10457000236838B11B68DB0502D54FF40073236450
:10458000032620E006F0FE061E611A4943463A461D
:104590002046FFF76BFFA8B9236803905A6903927E
:1045A0009B690393424639462046039BFFF7A0FFD1
:1045B000064660B1236C042B01BF2268136843F4E4
:1045C000007313600126304605B0BDE8F083B9F1F1
:1045D000010F236802D1EDB21D61F4E72A0A1A61C6
:1045E000394642462046FFF783FF0028E2D1236880
:1045F000F1E700BF020001002DE9FF479A4603687A
:1046000015461A6842F480621A601A68DDE90C786F
:1046100042F480721A600E463B46CDF800800022BC
:104620004FF001110446FFF7E1FE236838B11B6823
:10463000DB0544BF4FF400732364032021E05FFADD
:1046400086F906F0FE061E612B4943463A4620468F
:10465000FFF70CFFA0B9236803905A6903929B6986
:104660000393424639462046039BFFF741FF58B16A
:10467000236C042B01BF2268136843F4007313609A
:10468000012004B0BDE8F087BAF1010F23681AD108
:10469000EDB242461D6139462046FFF729FF02462A
:1046A0000028E5D121680B6843F480730B60204635
:1046B000CDF800803B464FF00111FFF797FE2268CE
:1046C00060B11368B4E72A0A1A61394642462046A7
:1046D000FFF70EFF0028CBD12368D9E749F001038B
:1046E0001361054943463A462046FFF7BFFE0038AE
:1046F00018BF0120C5E700BF0200010070B50446E5
:104700000D46164623685B695B0701D500201EE055
:104710002046FFF751FEC8B96A1CF3D0FFF7DCFB57
:10472000801BA84201D8002DECD123685B6913F0EF
:104730000403E7D12022236384F83D2084F83E302F
:10474000226C84F83C3042F020022264012070BDCB
:1047500070B504460D46164621684B6913F04003B8
:1047600001D0002011E04A69D2060FD56FF0100287
:104770004A612022236384F83D2084F83E30236C74
:104780002364002384F83C30012070BDFFF7A4FBB4
:10479000801BA84201D8002DDED123685B6913F08D
:1047A0004003D9D12022236384F83D2084F83E3091
:1047B000236C1343E4E7000070B5044608B90120F8
:1047C00070BD90F83D3003F0FF021BB980F83C202B
:1047D000FDF7F2FA242384F83D3023681A6822F0AA
:1047E00001021A601A6842F400421A601A6822F440
:1047F00000421A6000F0B2FE3F4B65689D4294BFD4
:104800003E4B3F4B98428CBF00230123002BD6D157
:104810002268394E51683B4BB0FBF3F321F03F0166
:104820001943B542516088BF4FF49676116A88BF2C
:10483000734321F03F0184BF4FF47A76B3FBF6F364
:1048400001330B431362D169431E2B4821F44F41BE
:10485000854221F0FF0132D86D0040F6FC70B3FBB9
:10486000F5F30133034242D0C3F30B031943D16183
:10487000D4E907301168034321F0C0010B431360F2
:104880009168D4E9030321F40341034321F0FF01BC
:104890000B439360D4E90530D168034321F0FF0155
:1048A0000B43D360136843F00103136000202023FF
:1048B000206484F83D30206384F83E0080E7A068DF
:1048C00050B905EB4505B3FBF5F30133C3F30B0317
:1048D0007BB143F40043C9E719206843B3FBF0F30D
:1048E0000133C3F30B0323B143F44043BEE7042376
:1048F000BCE70123BAE700BFA08601007F841E0049
:10490000FF083D0040420F002DE9F7430446994659
:104910000C9E0F469046FFF7DFFA94F83D30202BAF
:10492000054603D0022003B0BDE8F08300903C4967
:10493000192301222046FFF759FD0028F2D194F8EF
:104940003C30012BEED02068012384F83C30036812
:10495000D9075EBF036843F001030360036823F4D3
:1049600000630360212384F83D30402384F83E3007
:10497000002323640A9B6362BDF82C306385638D3A
:104980002385284BE3624246CDE900654B46394614
:104990002046FFF7D7FD00282AD00120C3E7FFF704
:1049A000A7FD40B1236C042B01BF2268136843F4B8
:1049B00000731360F1E7636A27681A4612F8011B57
:1049C00039616262628D218D013A92B262857A69A3
:1049D000481E80B2520720850AD548B15A783A61FC
:1049E00002336362638D013B02399BB2218563858B
:1049F000238D2A4631462046002BD0D1FFF77EFE7C
:104A00000028CFD12268136843F400731360202379
:104A100084F83D3084F83C0084F83E0083E700BF12
:104A2000020010000000FFFF2DE9F043044687B0AC
:104A30009946109F0D469046FFF74EFA94F83D3088
:104A4000202B064604D00225284607B0BDE8F08397
:104A500000907A49192301222046FFF7C7FC00285D
:104A6000F1D194F83C30012BEDD02068012384F87B
:104A70003C300368DB075EBF036843F0010303605B
:104A8000036823F400630360222384F83D3040234D
:104A900084F83E30002323640E9B6362BDF83C30F3
:104AA0006385638D2385664BE3622946CDE90076F5
:104AB0004B4642462046FFF79FFD054608B10125BB
:104AC000C2E7228D2368B2B902905A6902929A69AC
:104AD0000292029A1A6842F400721A60DFF8648146
:104AE000238D002B2CD1202284F83D2084F83C30EB
:104AF00084F83E30A8E7012A0AD11A6822F48062BD
:104B00001A6003905A6903929A690392039AE1E743
:104B1000022A0ED11A6822F480621A601A6842F4DE
:104B200000621A6004905A6904929B690493049B82
:104B3000D4E705905A6905929B690593059BCDE7DB
:104B4000032B56D8012B15D1324639462046FFF7A4
:104B5000FFFD0028B3D123681A69636A1A70636A7B
:104B600001336362238D013B2385638D013B9BB23F
:104B70006385B5E7022B00963B464FF000024146A5
:104B8000204619D1FFF732FC002898D123681A6813
:104B900042F400721A601A69636A1A70626A531CDE
:104BA0006362238D013B2385638D013B9BB263854B
:104BB00023681B695370D2E7FFF718FC02460028F0
:104BC0007FF47DAF2368196821F480611960196949
:104BD000636A1970636A01336362238D013B238525
:104BE000638D013B9BB26385414600963B46204660
:104BF000C8E7324639462046FFF7AAFD00287FF471
:104C00005EAF23681A69636A1A70628D616A013A3D
:104C100092B24B1C628522686362238D5069013B0E
:104C20009BB2400723857FF55BAF032B02BF136860
:104C300023F48063136013694B7090E70200100047
:104C40000000FFFF0400010010B590F83D30202B5C
:104C5000DCB216D1242380F83D3003681A6822F0B4
:104C600001021A605A6A22F010025A625A6A11430B
:104C700059621A6842F001021A6080F83D40002033
:104C800010BD0220FCE730B590F83D30202BDCB29F
:104C900016D10268242380F83D30136823F0010305
:104CA0001360556A4FF6F0732B400B439BB253626F
:104CB000136843F00103136080F83D40002030BDCD
:104CC0000220FCE70068D1F800C0D20184328318CA
:104CD0002DE9F043C6685D684C68D1F8189005F47A
:104CE00070455D60C5680CF10107C5F30B45C6F35F
:104CF0000B463D44264445EA06455D60C668CD68DE
:104D0000C6F30A062E449D6805F470459D60C76889
:104D10008D68C7F30A0701353D4445EA06459D60A5
:104D20001D690E6925F007051D614FF0000E1E611B
:104D30009D6991F8327091F83180C3F818E091F8CC
:104D4000305045EA096545EA082545EA07459D6171
:104D50005D6925F0FF055D614D695D61DD6925F4E3
:104D6000E06525F00705DD61D1E907573D43DD61C9
:104D70009D6A4D6AC3F828E09D621EB3012E23D0C0
:104D8000B51E022D22D9072E14BF01250225DE6A89
:104D900006F0E026DE62A4EB0C048E6AC96A6C435E
:104DA0006E43033444EA0644DC621C6B24F4FF6463
:104DB00024F007041C631963835843F001038350F4
:104DC000BDE8F0830425E2E70325E0E70225DEE7FE
:104DD00038B50446002863D090F8A13003F0FF02F4
:104DE0001BB980F8A020FDF743F8022384F8A13016
:104DF00023689A6922F070429A61D4E90120024343
:104E0000E06899690243206902430A439A619A68FB
:104E1000244960690A409A609A6842EA0042A0699F
:104E200002439A60DA68E0690A40DA60DA6842EAC6
:104E30000042206A0243DA601A69606A0A401A6115
:104E40001A6942EA0042A06A02431A615A690A409A
:104E50005A615A69E16A42EA0142216B0A435A6186
:104E6000DA6A94F8350094F8361002F07F42DA627C
:104E7000DD6A94F834202A4342EA002242EA0142E1
:104E8000DA625A6B42F006025A639A6942F00102F2
:104E90009A6100200123C4F8A40084F8A13038BD31
:104EA0000120FCE700F800F070477047036870B518
:104EB0009E6B5D6B7207044614D5690712D55A6B59
:104EC00022F004025A630422DA63D0F8A43043F0DB
:104ED0000103C0F8A430002380F8A12080F8A0309E
:104EE000FFF7E2FFB20716D5AB0714D523685A6B5C
:104EF00022F002025A630222DA63D4F8A430134388
:104F0000C4F8A430042384F8A130002384F8A0302E
:104F10002046FFF7C9FFF00710D5E9070ED5236833
:104F20005A6B22F001025A630122DA63002384F8EB
:104F3000A12084F8A0302046FCF726FB320711D5CB
:104F40002B070FD523685A6B22F008025A630822F8
:104F5000DA63012384F8A130002384F8A0302046CE
:104F6000FFF7A3FF70BD2DE9F04190F8A030012BB1
:104F700006460F4694464FF002001FD04FF001083E
:104F800086F8A08086F8A10034240D4604FB026454
:104F90000FCD38340FC40FCD0FC40FCD0FC42B6805
:104FA0002360304662463946FFF78CFE33680020A6
:104FB000C3F8248086F8A18086F8A000BDE8F081BF
:104FC00090F8A020012A03464FF0020012D01A6880
:104FD00083F8A100506B20F0010050630648016483
:104FE000516B41F0010151630020012283F8A1209F
:104FF00083F8A000704700BF0068014037B5002368
:105000000193184B184D1A6C42F080521A641B6CB5
:1050100003F080530193019B144B01221A64FEF7A5
:105020005BFF04466B68DA030BD5104B0E4D012273
:105030005A64FEF751FF04466B689B030AD50020B3
:1050400006E0FEF749FF001BB0F57A7FEAD903209E
:1050500003B030BDFEF740FF001BB0F57A7FEBD9FF
:10506000F5E700BF003802400070004000000E422B
:105070002DE9F341044640B30368DE0710D42368EA
:105080009D075BD42368190700F19D8023685A07A8
:1050900000F1BD80A369002B40F0248100202CE0AA
:1050A0008D4B9A6802F00C02042A07D09A6802F02D
:1050B0000C02082A0BD15B68590208D5864B1B6885
:1050C0009A03DCD56368002BD9D1012015E0636811
:1050D000814DB3F5803F13D12B6843F480332B60AF
:1050E000FEF7FAFE7C4E054633689B03C7D4FEF7F5
:1050F000F3FE401B6428F7D9032002B0BDE8F0811D
:10510000B3F5A02F04D12B6843F480232B60E3E791
:105110002A6822F480322A602A6822F480222A60D7
:10512000002BDDD1FEF7D8FE06462B689F03A6D5DF
:10513000FEF7D2FE801B6428F7D9DDE7664B9A683C
:1051400012F00C0F07D09A6802F00C02082A11D155
:105150005B685D020ED4604A1368990702D5E36864
:10516000012BB2D11368216923F0F80343EAC1038C
:10517000136087E7E268594BB2B101221A60FEF76B
:10518000ABFE554D06462B689B0707D52B68226959
:1051900023F0F80343EAC2032B6073E7FEF79CFE9B
:1051A000801B0228EFD9A7E71A60FEF795FE4A4E4A
:1051B000054633689F077FF565AFFEF78DFE401B00
:1051C0000228F6D998E76269444B82B10122C3F8FC
:1051D000802EFEF781FE404E0546736F9B073FF51C
:1051E00055AFFEF779FE401B0228F6D984E7C3F8D5
:1051F000802EFEF771FE384E0546736F9F077FF5D0
:1052000045AFFEF769FE401B0228F6D974E7324B22
:105210001A6C12F0805228D101921A6C42F080521E
:105220001A641B6C03F080530193019B01272C4DE2
:105230002B68D8051BD5A368274D012B27D12B6FD1
:1052400043F001032B67FEF747FE234E054641F26C
:105250008838336F9A0739D5002F3FF41BAF1E4AA9
:10526000136C23F08053136414E70027DFE72B68E7
:1052700043F480732B60FEF72FFE06462B68D9059A
:10528000D9D4FEF729FE801B0228F7D934E7052B75
:1052900004D12B6F43F004032B67D0E72A6F22F071
:1052A00001022A672A6F22F004022A67002BCAD162
:1052B000FEF712FE41F2883806462B6F9B07CBD5CE
:1052C000FEF70AFE801B4045F7D915E7FEF704FEFE
:1052D000401B4045BDD90FE700380240000047425F
:1052E00000700040374DAA6802F00C02082A3ED038
:1052F000022B354B4FF000021A662BD1FEF7ECFD66
:1053000006462B6899011FD4D4E907321343626A19
:1053100043EA8213E26A43EA0263A26A5208013A4C
:1053200043EA02436B60284B264D01221A66FEF7C2
:10533000D3FD04462B689A013FF5B0AEFEF7CCFDD5
:10534000001B0228F6D9D7E6FEF7C6FD801B02280F
:10535000D7D9D1E6FEF7C0FD04462B689B017FF547
:105360009DAEFEF7B9FD001B0228F6D9C4E6012B5D
:105370003FF4ABAE6B68E26903F4800191427FF4C5
:10538000A4AE216A03F03F028A427FF49EAE616AB6
:1053900047F6C0721A40B2EB811F7FF496AEA26A44
:1053A000520803F44031013AB1EB024F7FF48DAE65
:1053B000E26A03F07063B3EB026F14BF01200020B8
:1053C0009BE600BF0038024000004742134908B581
:1053D0008B6803F00C03042B1CD0082B1CD14A68EB
:1053E0004B68496813F4800314BF0D480D48C1F39E
:1053F000881118BF002302F03F02A1FB0001FAF759
:1054000097FF064B5B68C3F3014301335B00B0FBBE
:10541000F3F008BD0248FCE70248FAE70038024012
:1054200000127A000024F4002DE9F0410D460446F4
:1054300010B90120BDE8F081434B1A6802F00F0259
:105440008A4228D321688F072DD4C80740D43E4B09
:105450001A6802F00F02AA4265D8226851076BD47D
:10546000130707D5394A2169936823F4604343EA57
:10547000C1039360FFF7AAFF344B354A9B68C3F31F
:105480000313D35CD840334B1860334B1868FCF7D8
:10549000A3FE0020CEE7CAB21A701B6803F00F0308
:1054A0008B42C6D1CEE7294B11F0040F1EBF9A687C
:1054B00042F4E0529A600E0742BF9A6842F460429A
:1054C0009A609A68A06822F0F00202439A60BCE7F2
:1054D00062681E4B012A1CD11B6813F4003FA8D040
:1054E0001A4EB36823F003031343B360FEF7F4FCD2
:1054F00041F288380746B368626803F00C03B3EBE7
:10550000820FA4D0FEF7E8FCC01B4045F3D903206E
:1055100090E7911E01291B6802D813F0007FDEE797
:1055200013F0020FDBE7EAB21A701B6803F00F03F7
:10553000AB427FF47EAF90E70449E0688B6823F4C8
:10554000E05303438B608BE7003C0240003802408D
:1055500077290208740000207C000020044B054AD3
:105560009B68C3F38223D35C034A1068D84070471A
:10557000003802406F29020874000020044B054ADD
:105580009B68C3F34233D35C034A1068D84070472A
:10559000003802406F290208740000200F230360C6
:1055A0000B4B9A6802F0030242609A6802F0F00224
:1055B00082609A6802F4E052C2609B68DB0803F4E0
:1055C000E0530361034B1B6803F00F030B6070474C
:1055D00000380240003C0240036813F0430FF7B567
:1055E000044640F08880236813F00C0F45D08C4BA4
:1055F0008C4D00221A67FEF76FFC06462B68990057
:1056000000F1CB8021684A0715D5D4E90403D5F809
:1056100088201B0602F0E04243EA80131343C5F8DA
:105620008830D5F88C30226A23F4F853013A43EAE3
:105630000223C5F88C300B0714D57A4AA369D2F837
:10564000881020691B0701F0706143EA80130B4347
:10565000C2F88830D2F88C30616A23F440330B43AF
:10566000C2F88C306E4B6F4E01221A67FEF734FC85
:10567000054633689F0040F197802368980634D52B
:1056800000230193674B684D1A6C42F080521A64F4
:105690001B6C03F080530193019B2B6843F48073D0
:1056A0002B60FEF719FC06462B68D80540F1838075
:1056B0005C4DA26A2B6F13F4407340F08380A36AA1
:1056C00003F44072B2F5407F564A40F09E809168E4
:1056D00023F0704021F4F81120F4407001439160F0
:1056E000116FC3F30B030B4313672368DB0600F151
:1056F000908000204FE04A4B4A4E00229A66FEF707
:10570000EBFB054633681F013FD42168C80741BF42
:10571000D4E901231B0743EA8213C6F884308A07C1
:1057200015D5404AE368D2F8840065681B0600F08E
:10573000E04043EA85130343C2F88430D2F88C007A
:10574000E36920F01F00013B0343C2F88C304B0695
:105750000AD5E36862681B0643EA8213A26843EA3B
:105760000273304AC2F884302D4B2E4E01229A66C5
:10577000FEF7B2FB054633681F013FF534AFFEF775
:10578000ABFB401B0228F6D904E0FEF7A5FB401B4B
:105790000228B7D9032003B0F0BDFEF79DFB801BA4
:1057A00002287FF62BAFF5E7FEF796FB401B022899
:1057B0007FF65FAFEEE7FEF78FFB801B02287FF6D8
:1057C00073AFE7E702F4407293423FF478AF2B6F78
:1057D000134A0121C2F8401E23F440730021C2F88D
:1057E000401E2B672B6FD9077FF569AFFEF774FB5F
:1057F00041F2883706462B6F9A073FF560AFFEF7F8
:105800006BFB801BB842F6D9C4E7916821F4F8110C
:1058100065E7064B94F82C20C3F8E02169E700BF48
:10582000000047420038024000700040001047422C
:1058300038B50D460446C8B190F82C3003F0FF028D
:105840001BB980F82D20FCF75BFC022384F82C3078
:10585000211D206800F05DFE62682068294600F086
:1058600090FE012384F82C30002038BD0120FCE795
:1058700070B590F82C30022B05460E46D8B212D0E7
:1058800000F0FB04012C0FD1022385F82C3028688E
:1058900000F0ADFE3368022B06BF052385F82C30DF
:1058A00085F82C40002070BD0120FCE738B590F849
:1058B0002C30022B0446D8B20DD094F82C30012B9A
:1058C000DDB209D10223206884F82C3000F0B3FE49
:1058D00084F82C50002038BD0120FCE72DE9F34767
:1058E0001F46894690460446FEF7F6FA0A9D3D4457
:1058F0002D1AFEF7F1FA264B1E68C6F3CB366E431F
:10590000824601962268936839EA03030CBF01239B
:105910000023434501D100202EE07B1CF3D0FEF78D
:10592000DBFAA0EB0A00A84229D323685A6822F0C8
:10593000E0025A606268B2F5827F0AD1A268B2F5CD
:10594000004F02D0B2F5806F03D11A6822F04002F6
:105950001A60A26AB2F5005F07D11A6822F40052F9
:105960001A601A6842F400521A60012384F8513018
:10597000002384F85030032002B0BDE8F087019A7C
:10598000019B002A03F1FF33019308BF1546B9E7D5
:1059900074000020F0B585B00B4600920E46174605
:1059A000022101220446FFF799FF054628B1636DE5
:1059B00043F020036365032515E0124B1868124B72
:1059C000B0FBF3F04FF47A73584363680390B3F578
:1059D000827F0BD1009733462A4680212046FFF76D
:1059E0007DFF0028E3D1284605B0F0BD039B002BC6
:1059F000F9D0039B013B039323689B681B06F5D4F6
:105A0000F1E700BF7400002000366E0137B50B4689
:105A10004168B1F5827F044608D00092012100223E
:105A2000FFF75CFFD0B9002003B030BD8168B1F54D
:105A3000004F02D0B1F5806F07D125682868B1F515
:105A4000806F20F04000286004D000928021002266
:105A50002046E5E7009201210022F9E7636D43F05B
:105A6000200363650320DFE710B50446002855D006
:105A7000436A002B4ED14268B2F5827F00D0C361E9
:105A80000023A36294F8513003F0FF0223B984F895
:105A900050202046FCF7C8FA2168A068A2690223BA
:105AA00084F851300B6823F040030B60636800F406
:105AB000044003F482730343E06800F4006003438E
:105AC000206900F002000343606900F00100034315
:105AD00002F400700343E06900F038000343206AD9
